:100000000C9446000C945D000C945D000C945D0013
:100010000C945D000C945D000C945D000C945D00EC
:100020000C945D000C945D000C945D000C945D00DC
:100030000C945D000C945D000C945D000C945D00CC
:100040000C945D000C945D000C945D000C945D00BC
:100050000C945D000C945D000C945D000C945D00AC
:100060000C945D000C945D000C945D000C945D009C
:100070000C945D000C945D000C945D000C945D008C
:100080000C945D000C945D000C945D0011241FBE67
:10009000CFEFD0E4DEBFCDBF11E0A0E0B1E0EAE4F5
:1000A000F2E000E00BBF02C007900D92A030B10754
:1000B000D9F70E94B8000C9423010C940000DF9340
:1000C000CF9300D0CDB7DEB789836A83A5E2B0E0D5
:1000D000E5E2F0E080818F7E8C93EEE4F0E08981B0
:1000E00080648083EDE4F0E080818823DCF7EEE437
:1000F000F0E08A818083EDE4F0E080818823DCF702
:10010000A5E2B0E0E5E2F0E0808180618C930F90A1
:100110000F90CF91DF910895DF93CF930F92CDB7DA
:10012000DEB78983A5E2B0E0E5E2F0E080818F7E72
:100130008C93EEE4F0E089818083EDE4F0E080814F
:100140008823DCF7EEE4F0E01082EDE4F0E080815B
:100150008823DCF7A5E2B0E0E5E2F0E08081806191
:100160008C93EEE4F0E080810F90CF91DF910895C1
:10017000DF93CF93CDB7DEB729970FB6F894DEBFE4
:100180000FBECDBF9F838E8379876887EAE2F0E058
:100190008CEF8083ABE2B0E0EBE2F0E08081846042
:1001A0008C93E4E2F0E080EB8083A5E2B0E0E5E24E
:1001B000F0E0808180618C93ECE4F0E080E5808366
:1001C0001A821B821C821D820BC08A819B81AC819A
:1001D000BD810196A11DB11D8A839B83AC83BD8324
:1001E0008A819B81AC81BD81883E23E0920720E01B
:1001F000A20720E0B20748F38DE10E948C00882F0F
:1002000090E0817090700097B9F3ABE2B0E0EBE260
:10021000F0E0808188608C9380E00E948C0089836C
:1002200089818A3F41F4ABE2B0E0EBE2F0E080810B
:1002300080618C93F1CFABE2B0E0EBE2F0E0808143
:0A0240008F7E8C93E9CFF894FFCF76
:00000001FF
