:100000000C9446000C945D000C945D000C945D0013
:100010000C945D000C945D000C945D000C945D00EC
:100020000C945D000C945D000C945D000C945D00DC
:100030000C945D000C945D000C945D000C945D00CC
:100040000C945D000C945D000C945D000C945D00BC
:100050000C945D000C945D000C945D000C945D00AC
:100060000C945D000C945D000C945D000C945D009C
:100070000C945D000C945D000C945D000C945D008C
:100080000C945D000C945D000C945D0011241FBE67
:10009000CFEFD0E4DEBFCDBF11E0A0E0B1E0EAE9F0
:1000A000F2E000E00BBF02C007900D92A030B10754
:1000B000D9F70E94B8000C944B010C940000DF9318
:1000C000CF9300D0CDB7DEB789836A83A5E2B0E0D5
:1000D000E5E2F0E080818F7E8C93EEE4F0E08981B0
:1000E00080648083EDE4F0E080818823DCF7EEE437
:1000F000F0E08A818083EDE4F0E080818823DCF702
:10010000A5E2B0E0E5E2F0E0808180618C930F90A1
:100110000F90CF91DF910895DF93CF930F92CDB7DA
:10012000DEB78983A5E2B0E0E5E2F0E080818F7E72
:100130008C93EEE4F0E089818083EDE4F0E080814F
:100140008823DCF7EEE4F0E01082EDE4F0E080815B
:100150008823DCF7A5E2B0E0E5E2F0E08081806191
:100160008C93EEE4F0E080810F90CF91DF910895C1
:10017000DF93CF93CDB7DEB728970FB6F894DEBFE5
:100180000FBECDBF9E838D8378876F83EAE2F0E058
:100190008CEF8083ABE2B0E0EBE2F0E08081846042
:1001A0008C93E4E2F0E080EB8083A5E2B0E0E5E24E
:1001B000F0E0808180618C93ECE4F0E080E5808366
:1001C0008DE10E948C00882F90E0817090700097E4
:1001D000B9F3ABE2B0E0EBE2F0E0808188608C93B1
:1001E00080E00E948C008A3F41F4ABE2B0E0EBE299
:1001F000F0E0808180618C9307C0ABE2B0E0EBE27D
:10020000F0E080818F7E8C93ABE2B0E0EBE2F0E037
:10021000808180628C9319821A821B821C820BC09F
:1002200089819A81AB81BC810196A11DB11D898311
:100230009A83AB83BC8389819A81AB81BC81803AEC
:1002400026E8920721E0A20720E0B20748F3ABE2DC
:10025000B0E0EBE2F0E080818F7D8C9319821A820E
:100260001B821C820BC089819A81AB81BC81019663
:10027000A11DB11D89839A83AB83BC8389819A8137
:10028000AB81BC81803A26E8920721E0A20720E0FA
:0A029000B20748F3B9CFF894FFCF8E
:00000001FF
